:100000000C9497000C94B6000C94B6000C94B600B7
:100010000C94B6000C94B6000C94B6000C94B60088
:100020000C94B6000C94B6000C94B6000C94B60078
:100030000C94B6000C94B6000C94B6000C94DC0141
:100040000C94B6000C94B6000C94B6000C94B60058
:100050000C94B6000C94B6000C94B6000C94B60048
:100060000C94B6000C94B6000C94B6000C94B60038
:100070000C94B6000C94B6000C94B6000C94B60028
:100080000C94B6000C947C050C94B600BC0593054A
:10009000930593059305930593059305BC05930577
:1000A000930593059305930593059305C60593055D
:1000B0009305930593059305930593059305930580
:1000C000930593059305930593059305C60593053D
:1000D0009305930593059305930593059305930560
:1000E000930593059305930593059305DD05930506
:1000F000930593059305930593059305E1059305F2
:10010000930593059305930593059305930593052F
:10011000930593059305930593059305EF059305C3
:10012000930593059305930593059305AD05112458
:100130001FBECFEFD0E1DEBFCDBF11E0A0E0B1E048
:10014000E6E0F7E100E00BBF02C007900D92A83592
:10015000B107D9F711E0A8E5B1E001C01D92AE3DAD
:10016000B107E1F70E9439060C94810B0C94000052
:1001700090E002C0959587956A95E2F7817099277E
:1001800021E0822781700895E62FF0E0EE0FFF1F37
:10019000E658FE4F20813181220F331F306E90E0F0
:1001A00002C0959587956A95E2F7482F417050E017
:1001B000242B352B3183208381E02115304F09F02A
:1001C00080E00895009759F420EC2BBB8530910511
:1001D00089F422E92BBB0A970CF01BBA08958130F1
:1001E000910519F429EF2BBBF1CF8230910541F431
:1001F00024EA2BBB8630910571F482E88BBB08950D
:100200008330910571F420EB2BBB8830910571F49C
:1002100080E88BBB089587309105B9F788EF8BBBD9
:1002200008958430910591F629E92BBB8930910519
:1002300091F688E98BBB08956AE070E00E94220B7A
:10024000809359010895FC012AE030E0B9010E9431
:10025000220B80935901AF01481B5109CA0164E682
:1002600070E00E94220BB9010E94220B862F60933E
:10027000580108958091730181708093060108955B
:100280008FEF8ABB8BBB8FE99FE00197F1F700C02E
:100290000000089580E7809362001ABA8FEF8BBB4D
:1002A0008FE99FE00197F1F700C0000008958FEFFC
:1002B0008ABBE1E6F0E08081806780831092620073
:1002C000089580B7886080BF87B7826087BF83B793
:1002D000896083BF81B78F6781BF089585B58967BE
:1002E00085BD8AEA83BD08958FB580648FBD8EB5C4
:1002F00089608EBD10927A001DBC1CBC80EF95EC0D
:100300009BBD8ABD0895EBE8F0E08081826C80831C
:10031000EAE8F0E080818861808310928C0010927E
:1003200089001092880080EF95EC9093870080936D
:1003300086008FEF9FEF9093810080938000089557
:1003400080916C018F7071F480916A0190916B01C2
:10035000019690936B0180936A01809100018095D2
:100360008093000180916A0190916B01CC9709F014
:1003700008958091680190916901019690936901B7
:100380008093680110926B0110926A01CC9781F7FB
:100390008091660190916701019690936701809327
:1003A00066011092690110926801489709F710924E
:1003B00067011092660108951F920F920FB60F9277
:1003C00011240BB60F922F933F934F935F936F932C
:1003D0007F938F939F93AF93BF93EF93FF938091FE
:1003E0006C018F5F80936C010E94A001FF91EF91DF
:1003F000BF91AF919F918F917F916F915F914F913D
:100400003F912F910F900BBE0F900FBE0F901F903A
:100410001895CF93C82F809162001092620080914E
:100420006401909165010E94E2008FEA94E00197D7
:10043000F1F700C000008FEF8BBB80E1809362007A
:1004400080916201909163010E94E2008FEA94E042
:100450000197F1F700C000008FEF8BBB90E2909303
:10046000620090910001992361F18CEF8BBB8FEAC0
:1004700094E00197F1F700C000008FEF8BBB80E3A1
:100480008093620080916001909161010E94E2007E
:100490008FEA94E00197F1F700C000002FEF2BBB2B
:1004A00080E480936200C130B1F0C23061F08FEA25
:1004B00094E00197F1F700C000008FEF8BBBCF9164
:1004C00008958BBBD4CF80917101909172010A97EE
:1004D00044F42BBBECCF80916601909167010A97A1
:1004E000C4F380915E0190915F010E94E200DFCF32
:1004F00087B3876A87BBC19AE1E6F0E080818860B4
:100500008083E2E6F0E08081877F80838DB1806523
:100510008DB9709A089582B1886682B90895369A25
:10052000349BFECF349A84B195B190939C01809313
:100530009B016DEC70E00E94220B272F6093C1019C
:100540007093C2018093C3019093C401862F922FB0
:100550008330910544F4029719F480E283BD089535
:1005600080EF83BD08958FE083BD08951D9A1E9886
:100570001E9A1D981FB8779BFECF9FB19093730171
:100580001D9A823019F1813009F00895209173018C
:10059000322F317020FD05C080910601813009F4B1
:1005A00074C03093060122FB332730F93093770172
:1005B00023FB222720F920937601809175013817BB
:1005C000D9F130937501209374010895209173013E
:1005D000322F317020FD05C080910601813009F471
:1005E00047C03093060122FB332730F9309377015F
:1005F00023FB222720F9209376018091750138137F
:10060000E0CF3130F1F640917401421748F4809107
:100610006801909169010196909369018093680146
:10062000241778F680916801909169010197909361
:10063000690180936801C5CF313019F6409174018A
:10064000421748F480910301909104010196909320
:10065000040180930301241708F0B3CF80910301B4
:100660009091040101979093040180930301A9CF15
:10067000822F8370B9F08091660190916701019695
:100680009093670180936601ACCF822F8370A1F0B5
:100690008091710190917201019690937201809303
:1006A00071017FCF809166019091670101979093CE
:1006B00067018093660195CF8091710190917201DD
:1006C000019790937201809371016BCF8FE59AEE41
:1006D0000197F1F700C000001FB8779BFECF88E3B9
:1006E0008FB9779BFECF8091620088608093620013
:1006F00080916200877F809362008FE891E001978C
:10070000F1F700C000008FE19EE40197F1F700C00F
:1007100000001FB8779BFECF88E08FB9779BFECF94
:100720008091620088608093620080916200877F80
:10073000809362008FE891E00197F1F700C000001C
:100740008FE39FE10197F1F700C000001FB8779B8E
:10075000FECF86E08FB9779BFECF809162008860E4
:100760008093620080916200877F809362008FE8AF
:1007700091E00197F1F700C000001FB8779BFECF12
:1007800081E08FB9779BFECF809162008860809373
:10079000620080916200877F809362008FE891E021
:1007A0000197F1F700C000008FE19EE40197F1F797
:1007B00000C000001FB8779BFECF8CE08FB9779BFD
:1007C000FECF809162008860809362008091620019
:1007D000877F809362008FE891E00197F1F700C076
:1007E00000000895DC0120E030E090E041E04FB9E6
:1007F000779BFECFFD01E20FF31F80818FB9779BBE
:10080000FECF8091620088608093620080916200D8
:10081000877F80936200EFE8F1E03197F1F700C045
:1008200000009F5F292F30E0FD0101900020E9F7D3
:10083000EA1BFB0B3297E217F307C8F60895E2E6CE
:10084000F0E08081886080838081877F8083089545
:100850001FB8779BFECF81E08FB9779BFECF809149
:10086000620088608093620080916200877F80933D
:1008700062008FE39FE10197F1F700C00000089547
:100880001FB8779BFECF82E08FB9779BFECF809118
:10089000620088608093620080916200877F80930D
:1008A000620008951FB8779BFECF80EC8FB9779BCD
:1008B000FECF809162008860809362008091620028
:1008C000877F80936200089580E190E041E030E20C
:1008D0004FB9779BFECF3FB9779BFECF2091620047
:1008E00028602093620020916200277F209362009D
:1008F000EFE9FFE03197F1F700C0000001970097A2
:1009000039F7089591E09FB9779BFECF8FB9779B18
:10091000FECF8091620088608093620080916200C7
:10092000877F809362008FE99FE00197F1F700C015
:10093000000008951FB8779BFECF8CE08FB9779B9E
:10094000FECF809162008860809362008091620097
:10095000877F809362008FE99FE00197F1F700C0E5
:1009600000000895DC0180E090E020E030E041E00C
:100970004FB9779BFECFFD01E80FF91F80818FB93A
:10098000779BFECF809162008860809362008091A7
:100990006200877F809362008FE891E00197F1F712
:1009A00000C000002F5F3F4FC901FD0101900020F2
:1009B000E9F7EA1BFB0B3297E217F307C8F6089535
:1009C000809161008860809361008FE59AEE0197C5
:1009D000F1F700C0000083E090E030E31FB8779BA0
:1009E000FECF3FB9779BFECF209162002860209315
:1009F000620020916200277F20936200EFE5FDE610
:100A00003197F1F700C000000197009739F71FB840
:100A1000779BFECF88E38FB9779BFECF80916200F2
:100A200088608093620080916200877F809362007B
:100A30008FE19EE40197F1F700C000001FB8779B9B
:100A4000FECF88E08FB9779BFECF809162008860EF
:100A50008093620080916200877F80936200EFE163
:100A6000FEE43197F1F700C000001FB8779BFECF7E
:100A700081E08FB9779BFECF809162008860809380
:100A8000620080916200877F809362008FE19EE424
:100A90000197F1F700C000001FB8779BFECF86E0FA
:100AA0008FB9779BFECF809162008860809362004F
:100AB00080916200877F80936200EFE1FEE43197CE
:100AC000F1F700C000001FB8779BFECF8EE08FB912
:100AD000779BFECF80916200886080936200809156
:100AE0006200877F809362008FE19EE40197F1F7B7
:100AF00000C00000089508951F920F920FB60F9244
:100B000011240BB60F922F933F938F939F93AF9324
:100B1000BF93EF93FF938091710090E0FC013897B1
:100B2000E135F105B0F0809171008093D90184E046
:100B300080937400FF91EF91BF91AF919F918F913E
:100B40003F912F910F900BBE0F900FBE0F901F90F3
:100B50001895EA5BFF4F0C94360B80918A01E09167
:100B6000DA01F091DB01E80FF11D809173008083C1
:100B700084E980937400DECF8091DC018093730060
:100B800010928A0185E880937400D4CF80918A0105
:100B90009091DD01891760F7E091DA01F091DB01B6
:100BA00091E0980F90938A01E80FF11D8081809366
:100BB000730085E880937400BDCF85EA809374004C
:100BC000B9CF20918A018091DD0130E090E001975A
:100BD00028173907DCF485EC80937400ABCFE091E3
:100BE000DA01F091DB0180918A0121E0280F209346
:100BF0008A01E80FF11D8091730080838091DD01EF
:100C000030E090E00197281739072CF385E88093AE
:100C1000740090CF80917400817008959091740059
:100C200090FDFCCF8E7F8093DC017093DB0160939D
:100C3000DA014093DD0185EA809374000895909174
:100C4000740090FDFCCF81608093DC017093DB0128
:100C50006093DA014093DD0185EA80937400089582
:100C60008FEF80937300109271008CE0809370007E
:100C70000895CF93DF9300D000D000D0CDB7DEB77A
:100C80008FEF8ABB80916100806780936100109232
:100C90006200809161008F77809361008091620093
:100CA0008F778093620087B1876487B986B1876840
:100CB00086B980918B00826C80938B0080918A0032
:100CC000886180938A0010928C00109289001092A3
:100CD000880080EF95EC90938700809386002FEF3B
:100CE0003FEF309381002093800025B5296725BD13
:100CF0002AEA23BD2FB520642FBD2EB529602EBD55
:100D000010927A001DBC1CBC9BBD8ABD80B7886058
:100D100080BF87B7826087BF83B7896083BF81B791
:100D20008F6781BF0E9478020E94660382B1886645
:100D300082B90E9430061092D50141E060E070E077
:100D400080E90E940E0678940E94280480E090E0DA
:100D5000A4E6EA2EF12C8130910509F453C10297E3
:100D600009F066C280E7809362001ABA8FEF8BBBEE
:100D7000EFE9FFE03197F1F700C0000029B380915F
:100D80007C0190917D01880F991F906E26952170AE
:100D90002B831C822B813C81822B932B90937D0192
:100DA00080937C018115904F09F4BDC062E0A62EAE
:100DB000BB24BA9481E00E94B60200910301109115
:100DC00004010C33110509F4F3C120917101309134
:100DD00072010F3F4FEF140709F419C2C8016AE00E
:100DE00070E00E94220BFC01FF27C8018E1B9F0BA5
:100DF000B7010E94220B6AE070E00E94220B8B0177
:100E000011272831310509F4E9C12F3F9FEF390738
:100E100009F4EFC1C9016AE070E00E94220BAC0145
:100E20006C01DD24C9018C199D09B7010E94220BB8
:100E30006AE070E00E94220BCB019927F0936501D4
:100E4000E0936401109363010093620140935901A0
:100E5000D0926101C09260016093580190935F014C
:100E600080935E01BABABBBA8FE99FE00197F1F7B0
:100E700000C0000082E00E94090290E790936200A7
:100E80001ABABBBAEFE9FFE03197F1F700C00000F2
:100E900086E391E00E94F2031FB8779BFECF80ECBF
:100EA0008FB9779BFECF809162008860809362004B
:100EB00080916200877F809362008FE39FE10197BA
:100EC000F1F700C0000087E491E00E94F2031FB830
:100ED000779BFECFAFB8779BFECF80916200886092
:100EE0008093620080916200877F80936200EFE3CD
:100EF000FFE13197F1F700C0000029B380917C0138
:100F000090917D01880F991F906E21FB662460F8F7
:100F1000712C8629972990937D0180937C018115FE
:100F2000904F09F047CF8FEF8ABB8BBBEFE9FFE013
:100F30003197F1F700C0000081E080936E011FB887
:100F4000779BFECF81E08FB9779BFECF80916200C7
:100F500088608093620080916200877F8093620046
:100F60008FE39FE10197F1F700C0000080E78093D5
:100F700062001ABA8FEF8BBBEFE9FFE03197F1F710
:100F800000C0000029B380917A0190917B01880F05
:100F9000991F906E20FB882480F8912C882999292C
:100FA00090937B0180937A018115904F09F475C26B
:100FB00029B380917C0190917D01880F991F906EDB
:100FC00021FB222420F8312CF1E02F26222D217044
:100FD00031E02327822B90937D0180937C01811542
:100FE000904F09F49AC280E090E02FEF2ABB2BBB10
:100FF000EFE9FFE03197F1F700C000008130910583
:1010000009F0ADCE80E7809362001ABA8FEF8BBBF8
:101010008FE99FE00197F1F700C0000029B38091AC
:101020007A0190917B01880F991F906E217029831E
:101030001A8229813A81822B932B90937B01809392
:101040007A018115904F09F4A2C0BB24BA9470E7CD
:10105000A72E82E00E94B6020091680110916901FA
:101060000C33110509F427C2209166013091670104
:101070000F3F4FEF140709F431C2C8016AE070E076
:101080000E94220BFC01FF27C8018E1B9F0BB7019A
:101090000E94220B6AE070E00E94220B8B01112754
:1010A0002831310509F4FCC12F3F9FEF390709F4BE
:1010B00026C2C9016AE070E00E94220BAC016C01FB
:1010C000DD24C9018C199D09B7010E94220B6AE039
:1010D00070E00E94220BCB019927F0936501E09309
:1010E0006401109363010093620140935901D0920F
:1010F0006101C09260016093580190935F018093F9
:101100005E01BABABBBA8FE99FE00197F1F700C060
:10111000000081E00E940902A09262001ABABBBAE4
:10112000EFE9FFE03197F1F700C0000084E291E0C1
:101130000E94F2031FB8779BFECF82E08FB9779BA6
:10114000FECF80916200886080936200809162008F
:10115000877F809362008FE39FE10197F1F700C0E2
:10116000000029B380917A0190917B01880F991F2B
:10117000906E20FB442440F8512C842995299093AB
:101180007B0180937A018115904F09F062CF8FEF38
:101190008ABB8BBB8FE99FE00197F1F700C000008D
:1011A0001FB8779BFECF81E08FB9779BFECFCECE65
:1011B00020917101309172012F5F3F4F3093720186
:1011C00020937101109204011092030100E010E0DD
:1011D000E0E0F0E02831310509F017CE10927201FD
:1011E0001092710160E040E080E090E0C12CD12CD1
:1011F00025CE27E130E0309372012093710162E047
:1012000043E082E090E023E0C22ED12C17CE2150A3
:10121000310930937201209371018BE390E0909338
:1012200004018093030105E010E0E9E0F0E0E9CD7E
:101230008FEF8ABB8BBB8FE99FE00197F1F700C06E
:1012400000002091680130916901C9016AE070E0F5
:101250000E94220B99279093650180936401F90104
:10126000E81BF90BCF01B7010E94220B6AE070E086
:101270000E94220B77277093630160936201209193
:10128000660130916701C9016AE070E00E94220B9B
:101290008093590199279093610180936001A9017E
:1012A000481B590BCA01B7010E94220B6AE070E08B
:1012B0000E94220B60935801772770935F0160931F
:1012C0005E018FEF8ABB8BBB8FE99FE00197F1F73F
:1012D00000C0000080917801843609F44FC18091EC
:1012E0006E01813009F01CC12091680130916901C3
:1012F00080910301909104012817390709F42CC14A
:1013000080E7809362001ABA8FEF8BBBEFE9FFE0B2
:101310003197F1F700C0000029B3809186019091C8
:101320008701880F991F906E41E026FB222720F944
:101330002D831E822D813E81822B932B90938701DA
:10134000809386018115904F09F41DC129B38091C6
:10135000880190918901880F991F906E30E0220FCB
:10136000232F221F330BF1E02F2721702427822BFC
:1013700090938901809388018115904F09F41AC1D7
:1013800080916D01813009F410C187E091E00E94E5
:10139000F2031FB8779BFECF82E08FB9779BFECF19
:1013A0008091620088608093620080916200877FF4
:1013B000809362008FE39FE10197F1F700C0000086
:1013C0001FB8779BFECF80EC8FB9779BFECF8091C3
:1013D000620088608093620080916200877F8093C2
:1013E00062008FE39FE10197F1F700C0000042E047
:1013F00067ED71E080E90E941F06EFE3FFE131979E
:10140000F1F700C000008091D70190E0982F882765
:101410002091D801822B4AE050E06BE871E0880F00
:10142000892F881F990B91950E94500B80E291E0C3
:101430000E94F2038BE891E00E94F2031FB8779BB1
:10144000FECF82E08FB9779BFECF809162008860EB
:101450008093620080916200877F809362008FE3B7
:101460009FE10197F1F700C000008FEF8ABB8BBBB3
:10147000EFE9FFE03197F1F700C0000081E00E9442
:101480000902809178018F5F8093780180EF95EC5D
:10149000909387008093860069CD81E090E0A5CD90
:1014A000109267011092660160E040E080E090E0F9
:1014B000C12CD12C12CE20916601309167012F5F93
:1014C0003F4F30936701209366011092690110929B
:1014D000680100E010E0E0E0F0E0E2CD21503109E9
:1014E00030936701209366018BE390E0909369014C
:1014F0008093680105E010E0E9E0F0E0D1CD27E15C
:1015000030E0309367012093660162E043E082E0BF
:1015100090E053E0C52ED12CE0CD82E090E065CD87
:1015200084E191E00E94F2031FB8779BFECF82E036
:101530008FB9779BFECF80916200886080936200B4
:1015400080916200877F80936200EFE3FFE1319733
:10155000F1F700C0000034CF20916601309167019F
:1015600080917101909172012817390709F0C8CE56
:1015700080918A00816080938A00C2CE0E948F028F
:1015800010927801ACCE80918A008E7F80938A0081
:1015900080EF9FEF909387008093860010926E01FA
:1015A00080916D01813009F0F0CE809168019091B9
:1015B00069012CC080EF9FEF909387008093860095
:1015C00080918A008E7F80938A008091680190913B
:1015D00069019C012F5F3F4F30930201209301016D
:1015E00040936D012C333105ACF020916F013091A7
:1015F00070012F5F3F4F3093700120936F019C016A
:101600002B533109309302012093010120910101F4
:10161000309102018217930709F0B7CE209166013D
:101620003091670180916F019091700128173907FF
:1016300009F0ABCE80918A00816080938A0010927D
:101640006D01A3CE97FB072E16F4009407D077FD0B
:1016500009D00E943C0B07FC05D03EF49095819583
:101660009F4F0895709561957F4F0895EE0FFF1F6E
:101670000590F491E02D0994AA1BBB1B51E107C012
:10168000AA1FBB1FA617B70710F0A61BB70B881F12
:10169000991F5A95A9F780959095BC01CD010895A1
:1016A000FB019F01E8944230C4F04532B4F44A3063
:1016B00029F497FB1EF4909581959F4F642F77270F
:1016C0000E943C0B805D8A330CF0895D8193CB01D5
:1016D0000097A1F716F45DE251931082C9010C94B2
:1016E000710BDC01FC01672F71917723E1F73297D1
:1016F00004C07C916D9370836291AE17BF07C8F3ED
:061700000895F894FFCFEC
:10170600FF010001000101416C61726D20697320C7
:101716004F6E2000436C6F636B204D6F6465200035
:10172600696E3A00576861742074696D6520697343
:101736002069743F2000576861742074696D6520C4
:10174600646F20796F750077616E7420746F2077EF
:08175600616B652075703F0016
:00000001FF
