:100000000C9497000C94B6000C94B6000C94B600B7
:100010000C94B6000C94B6000C94B6000C94B60088
:100020000C94B6000C94B6000C94B6000C94B60078
:100030000C94B6000C94B6000C94B6000C94DC0141
:100040000C94B6000C94B6000C94B6000C94B60058
:100050000C94B6000C94B6000C94B6000C94B60048
:100060000C94B6000C94B6000C94B6000C94B60038
:100070000C94B6000C94B6000C94B6000C94B60028
:100080000C94B6000C947C050C94B600BC0593054A
:10009000930593059305930593059305BC05930577
:1000A000930593059305930593059305C60593055D
:1000B0009305930593059305930593059305930580
:1000C000930593059305930593059305C60593053D
:1000D0009305930593059305930593059305930560
:1000E000930593059305930593059305DD05930506
:1000F000930593059305930593059305E1059305F2
:10010000930593059305930593059305930593052F
:10011000930593059305930593059305EF059305C3
:10012000930593059305930593059305AD05112458
:100130001FBECFEFD0E1DEBFCDBF11E0A0E0B1E048
:10014000EEEFF6E100E00BBF02C007900D92A43580
:10015000B107D9F711E0A4E5B1E001C01D92AA3DB5
:10016000B107E1F70E9439060C947D0B0C94000056
:1001700090E002C0959587956A95E2F7817099277E
:1001800021E0822781700895E62FF0E0EE0FFF1F37
:10019000EA58FE4F20813181220F331F306E90E0EC
:1001A00002C0959587956A95E2F7482F417050E017
:1001B000242B352B3183208381E02115304F09F02A
:1001C00080E00895009759F420EC2BBB8530910511
:1001D00089F422E92BBB0A970CF01BBA08958130F1
:1001E000910519F429EF2BBBF1CF8230910541F431
:1001F00024EA2BBB8630910571F482E88BBB08950D
:100200008330910571F420EB2BBB8830910571F49C
:1002100080E88BBB089587309105B9F788EF8BBBD9
:1002200008958430910591F629E92BBB8930910519
:1002300091F688E98BBB08956AE070E00E941E0B7E
:10024000809355010895FC012AE030E0B9010E9435
:100250001E0B80935501AF01481B5109CA0164E68A
:1002600070E00E941E0BB9010E941E0B862F609346
:100270005401089580916F01817080930601089563
:100280008FEF8ABB8BBB8FE99FE00197F1F700C02E
:100290000000089580E7809362001ABA8FEF8BBB4D
:1002A0008FE99FE00197F1F700C0000008958FEFFC
:1002B0008ABBE1E6F0E08081806780831092620073
:1002C000089580B7886080BF87B7826087BF83B793
:1002D000896083BF81B78F6781BF089585B58967BE
:1002E00085BD8AEA83BD08958FB580648FBD8EB5C4
:1002F00089608EBD10927A001DBC1CBC80EF95EC0D
:100300009BBD8ABD0895EBE8F0E08081826C80831C
:10031000EAE8F0E080818861808310928C0010927E
:1003200089001092880080EF95EC9093870080936D
:1003300086008FEF9FEF9093810080938000089557
:10034000809168018F7071F48091660190916701CE
:1003500001969093670180936601809100018095DA
:10036000809300018091660190916701CC9709F01C
:1003700008958091640190916501019690936501C3
:10038000809364011092670110926601CC9781F707
:100390008091620190916301019690936301809333
:1003A00062011092650110926401489709F710925A
:1003B00063011092620108951F920F920FB60F927F
:1003C00011240BB60F922F933F934F935F936F932C
:1003D0007F938F939F93AF93BF93EF93FF938091FE
:1003E00068018F5F809368010E94A001FF91EF91E7
:1003F000BF91AF919F918F917F916F915F914F913D
:100400003F912F910F900BBE0F900FBE0F901F903A
:100410001895CF93C82F809162001092620080914E
:100420006001909161010E94E2008FEA94E00197DF
:10043000F1F700C000008FEF8BBB80E1809362007A
:1004400080915E0190915F010E94E2008FEA94E04A
:100450000197F1F700C000008FEF8BBB90E2909303
:10046000620090910001992361F18CEF8BBB8FEAC0
:1004700094E00197F1F700C000008FEF8BBB80E3A1
:100480008093620080915C0190915D010E94E20086
:100490008FEA94E00197F1F700C000002FEF2BBB2B
:1004A00080E480936200C130B1F0C23061F08FEA25
:1004B00094E00197F1F700C000008FEF8BBBCF9164
:1004C00008958BBBD4CF80916D0190916E010A97F6
:1004D00044F42BBBECCF80916201909163010A97A9
:1004E000C4F380915A0190915B010E94E200DFCF3A
:1004F00087B3876A87BBC19AE1E6F0E080818860B4
:100500008083E2E6F0E08081877F80838DB1806523
:100510008DB9709A089582B1886682B90895369A25
:10052000349BFECF349A84B195B190939801809317
:1005300097016DEC70E00E941E0B272F6093BD01A8
:100540007093BE018093BF019093C001862F922FBC
:100550008330910544F4029719F480E283BD089535
:1005600080EF83BD08958FE083BD08951D9A1E9886
:100570001E9A1D981FB8779BFECF9FB190936F0175
:100580001D9A823019F1813009F0089520916F0190
:10059000322F317020FD05C080910601813009F4B1
:1005A00074C03093060122FB332730F93093730176
:1005B00023FB222720F920937201809171013817C3
:1005C000D9F13093710120937001089520916F014A
:1005D000322F317020FD05C080910601813009F471
:1005E00047C03093060122FB332730F93093730163
:1005F00023FB222720F92093720180917101381387
:10060000E0CF3130F1F640917001421748F480910B
:100610006401909165010196909365018093640156
:10062000241778F680916401909165010197909369
:10063000650180936401C5CF313019F64091700196
:10064000421748F480910301909104010196909320
:10065000040180930301241708F0B3CF80910301B4
:100660009091040101979093040180930301A9CF15
:10067000822F8370B9F0809162019091630101969D
:100680009093630180936201ACCF822F8370A1F0BD
:1006900080916D0190916E01019690936E0180930F
:1006A0006D017FCF809162019091630101979093DA
:1006B00063018093620195CF80916D0190916E01ED
:1006C000019790936E0180936D016BCF8FE59AEE49
:1006D0000197F1F700C000001FB8779BFECF88E3B9
:1006E0008FB9779BFECF8091620088608093620013
:1006F00080916200877F809362008FE891E001978C
:10070000F1F700C000008FE19EE40197F1F700C00F
:1007100000001FB8779BFECF88E08FB9779BFECF94
:100720008091620088608093620080916200877F80
:10073000809362008FE891E00197F1F700C000001C
:100740008FE39FE10197F1F700C000001FB8779B8E
:10075000FECF86E08FB9779BFECF809162008860E4
:100760008093620080916200877F809362008FE8AF
:1007700091E00197F1F700C000001FB8779BFECF12
:1007800081E08FB9779BFECF809162008860809373
:10079000620080916200877F809362008FE891E021
:1007A0000197F1F700C000008FE19EE40197F1F797
:1007B00000C000001FB8779BFECF8CE08FB9779BFD
:1007C000FECF809162008860809362008091620019
:1007D000877F809362008FE891E00197F1F700C076
:1007E00000000895DC0120E030E090E041E04FB9E6
:1007F000779BFECFFD01E20FF31F80818FB9779BBE
:10080000FECF8091620088608093620080916200D8
:10081000877F80936200EFE8F1E03197F1F700C045
:1008200000009F5F292F30E0FD0101900020E9F7D3
:10083000EA1BFB0B3297E217F307C8F60895E2E6CE
:10084000F0E08081886080838081877F8083089545
:100850001FB8779BFECF81E08FB9779BFECF809149
:10086000620088608093620080916200877F80933D
:1008700062008FE39FE10197F1F700C00000089547
:100880001FB8779BFECF82E08FB9779BFECF809118
:10089000620088608093620080916200877F80930D
:1008A000620008951FB8779BFECF80EC8FB9779BCD
:1008B000FECF809162008860809362008091620028
:1008C000877F80936200089580E190E041E030E20C
:1008D0004FB9779BFECF3FB9779BFECF2091620047
:1008E00028602093620020916200277F209362009D
:1008F000EFE9FFE03197F1F700C0000001970097A2
:1009000039F7089591E09FB9779BFECF8FB9779B18
:10091000FECF8091620088608093620080916200C7
:10092000877F809362008FE99FE00197F1F700C015
:10093000000008951FB8779BFECF8CE08FB9779B9E
:10094000FECF809162008860809362008091620097
:10095000877F809362008FE99FE00197F1F700C0E5
:1009600000000895DC0180E090E020E030E041E00C
:100970004FB9779BFECFFD01E80FF91F80818FB93A
:10098000779BFECF809162008860809362008091A7
:100990006200877F809362008FE891E00197F1F712
:1009A00000C000002F5F3F4FC901FD0101900020F2
:1009B000E9F7EA1BFB0B3297E217F307C8F6089535
:1009C000809161008860809361008FE59AEE0197C5
:1009D000F1F700C0000083E090E030E31FB8779BA0
:1009E000FECF3FB9779BFECF209162002860209315
:1009F000620020916200277F20936200EFE5FDE610
:100A00003197F1F700C000000197009739F71FB840
:100A1000779BFECF88E38FB9779BFECF80916200F2
:100A200088608093620080916200877F809362007B
:100A30008FE19EE40197F1F700C000001FB8779B9B
:100A4000FECF88E08FB9779BFECF809162008860EF
:100A50008093620080916200877F80936200EFE163
:100A6000FEE43197F1F700C000001FB8779BFECF7E
:100A700081E08FB9779BFECF809162008860809380
:100A8000620080916200877F809362008FE19EE424
:100A90000197F1F700C000001FB8779BFECF86E0FA
:100AA0008FB9779BFECF809162008860809362004F
:100AB00080916200877F80936200EFE1FEE43197CE
:100AC000F1F700C000001FB8779BFECF8EE08FB912
:100AD000779BFECF80916200886080936200809156
:100AE0006200877F809362008FE19EE40197F1F7B7
:100AF00000C00000089508951F920F920FB60F9244
:100B000011240BB60F922F933F938F939F93AF9324
:100B1000BF93EF93FF938091710090E0FC013897B1
:100B2000E135F105B0F0809171008093D50184E04A
:100B300080937400FF91EF91BF91AF919F918F913E
:100B40003F912F910F900BBE0F900FBE0F901F90F3
:100B50001895EA5BFF4F0C94320B80918601E0916F
:100B6000D601F091D701E80FF11D809173008083C9
:100B700084E980937400DECF8091D8018093730064
:100B80001092860185E880937400D4CF809186010D
:100B90009091D901891760F7E091D601F091D701C2
:100BA00091E0980F90938601E80FF11D808180936A
:100BB000730085E880937400BDCF85EA809374004C
:100BC000B9CF209186018091D90130E090E0019762
:100BD00028173907DCF485EC80937400ABCFE091E3
:100BE000D601F091D7018091860121E0280F209352
:100BF0008601E80FF11D8091730080838091D901F7
:100C000030E090E00197281739072CF385E88093AE
:100C1000740090CF80917400817008959091740059
:100C200090FDFCCF8E7F8093D8017093D7016093A5
:100C3000D6014093D90185EA80937400089590917C
:100C4000740090FDFCCF81608093D8017093D70130
:100C50006093D6014093D90185EA8093740008958A
:100C60008FEF80937300109271008CE0809370007E
:100C70000895CF93DF9300D000D000D0CDB7DEB77A
:100C80008FEF8ABB80916100806780936100109232
:100C90006200809161008F77809361008091620093
:100CA0008F778093620087B1876487B986B1876840
:100CB00086B980918B00826C80938B0080918A0032
:100CC000886180938A0010928C00109289001092A3
:100CD000880080EF95EC90938700809386002FEF3B
:100CE0003FEF309381002093800025B5296725BD13
:100CF0002AEA23BD2FB520642FBD2EB529602EBD55
:100D000010927A001DBC1CBC9BBD8ABD80B7886058
:100D100080BF87B7826087BF83B7896083BF81B791
:100D20008F6781BF0E9478020E94660382B1886645
:100D300082B90E9430061092D10141E060E070E07B
:100D400080E90E940E0678940E94280480E090E0DA
:100D5000A4E6EA2EF12C8130910509F453C10297E3
:100D600009F066C280E7809362001ABA8FEF8BBBEE
:100D7000EFE9FFE03197F1F700C0000029B380915F
:100D8000780190917901880F991F906E26952170B6
:100D90002B831C822B813C81822B932B9093790196
:100DA000809378018115904F09F4BDC062E0A62EB2
:100DB000BB24BA9481E00E94B60200910301109115
:100DC00004010C33110509F4F3C120916D01309138
:100DD0006E010F3F4FEF140709F419C2C8016AE012
:100DE00070E00E941E0BFC01FF27C8018E1B9F0BA9
:100DF000B7010E941E0B6AE070E00E941E0B8B017F
:100E000011272831310509F4E9C12F3F9FEF390738
:100E100009F4EFC1C9016AE070E00E941E0BAC0149
:100E20006C01DD24C9018C199D09B7010E941E0BBC
:100E30006AE070E00E941E0BCB019927F0936101DC
:100E4000E093600110935F0100935E0140935501B0
:100E5000D0925D01C0925C016093540190935B015C
:100E600080935A01BABABBBA8FE99FE00197F1F7B4
:100E700000C0000082E00E94090290E790936200A7
:100E80001ABABBBAEFE9FFE03197F1F700C00000F2
:100E900082E391E00E94F2031FB8779BFECF80ECC3
:100EA0008FB9779BFECF809162008860809362004B
:100EB00080916200877F809362008FE39FE10197BA
:100EC000F1F700C0000083E491E00E94F2031FB834
:100ED000779BFECFAFB8779BFECF80916200886092
:100EE0008093620080916200877F80936200EFE3CD
:100EF000FFE13197F1F700C0000029B3809178013C
:100F000090917901880F991F906E21FB662460F8FB
:100F1000712C862997299093790180937801811506
:100F2000904F09F047CF8FEF8ABB8BBBEFE9FFE013
:100F30003197F1F700C0000081E080936A011FB88B
:100F4000779BFECF81E08FB9779BFECF80916200C7
:100F500088608093620080916200877F8093620046
:100F60008FE39FE10197F1F700C0000080E78093D5
:100F700062001ABA8FEF8BBBEFE9FFE03197F1F710
:100F800000C0000029B38091760190917701880F0D
:100F9000991F906E20FB882480F8912C882999292C
:100FA00090937701809376018115904F09F471C277
:100FB00029B38091780190917901880F991F906EE3
:100FC00021FB222420F8312CF1E02F26222D217044
:100FD00031E02327822B909379018093780181154A
:100FE000904F09F496C280E090E02FEF2ABB2BBB14
:100FF000EFE9FFE03197F1F700C000008130910583
:1010000009F0ADCE80E7809362001ABA8FEF8BBBF8
:101010008FE99FE00197F1F700C0000029B38091AC
:10102000760190917701880F991F906E2170298326
:101030001A8229813A81822B932B90937701809396
:1010400076018115904F09F4A2C0BB24BA9470E7D1
:10105000A72E82E00E94B602009164011091650102
:101060000C33110509F423C2209162013091630110
:101070000F3F4FEF140709F42DC2C8016AE070E07A
:101080000E941E0BFC01FF27C8018E1B9F0BB7019E
:101090000E941E0B6AE070E00E941E0B8B0111275C
:1010A0002831310509F4F8C12F3F9FEF390709F4C2
:1010B00022C2C9016AE070E00E941E0BAC016C0103
:1010C000DD24C9018C199D09B7010E941E0B6AE03D
:1010D00070E00E941E0BCB019927F0936101E09311
:1010E000600110935F0100935E0140935501D0921F
:1010F0005D01C0925C016093540190935B01809309
:101100005A01BABABBBA8FE99FE00197F1F700C064
:10111000000081E00E940902A09262001ABABBBAE4
:10112000EFE9FFE03197F1F700C0000080E291E0C5
:101130000E94F2031FB8779BFECF82E08FB9779BA6
:10114000FECF80916200886080936200809162008F
:10115000877F809362008FE39FE10197F1F700C0E2
:10116000000029B38091760190917701880F991F33
:10117000906E20FB442440F8512C842995299093AB
:101180007701809376018115904F09F062CF8FEF40
:101190008ABB8BBB8FE99FE00197F1F700C000008D
:1011A0001FB8779BFECF81E08FB9779BFECFCECE65
:1011B00020916D0130916E012F5F3F4F30936E0192
:1011C00020936D01109204011092030100E010E0E1
:1011D000E0E0F0E02831310509F017CE10926E0101
:1011E00010926D0160E040E080E090E0C12CD12CD5
:1011F00025CE27E130E030936E0120936D0162E04F
:1012000043E082E090E023E0C22ED12C17CE2150A3
:10121000310930936E0120936D018BE390E0909340
:1012200004018093030105E010E0E9E0F0E0E9CD7E
:101230008FEF8ABB8BBB8FE99FE00197F1F700C06E
:1012400000002091640130916501C9016AE070E0FD
:101250000E941E0B99279093610180936001F90110
:10126000E81BF90BCF01B7010E941E0B6AE070E08A
:101270000E941E0B772770935F0160935E0120919F
:10128000620130916301C9016AE070E00E941E0BA7
:1012900080935501992790935D0180935C01A9018A
:1012A000481B590BCA01B7010E941E0B6AE070E08F
:1012B0000E941E0B60935401772770935B0160932B
:1012C0005A018FEF8ABB8BBB8FE99FE00197F1F743
:1012D00000C0000080917401843609F44BC18091F4
:1012E0006A01813009F018C12091640130916501D3
:1012F00080910301909104012817390709F428C14E
:1013000080E7809362001ABA8FEF8BBBEFE9FFE0B2
:101310003197F1F700C0000029B3809182019091CC
:101320008301880F991F906E41E026FB222720F948
:101330002D831E822D813E81822B932B90938301DE
:10134000809382018115904F09F419C129B38091CE
:10135000840190918501880F991F906E30E0220FD3
:10136000232F221F330BF1E02F2721702427822BFC
:1013700090938501809384018115904F09F416C1E3
:1013800080916901813009F40CC187E091E00E94ED
:10139000F2031FB8779BFECF82E08FB9779BFECF19
:1013A0008091620088608093620080916200877FF4
:1013B000809362008FE39FE10197F1F700C0000086
:1013C0001FB8779BFECF80EC8FB9779BFECF8091C3
:1013D000620088608093620080916200877F8093C2
:1013E00062008FE39FE10197F1F700C0000042E047
:1013F00063ED71E080E90E941F06EFE3FFE13197A2
:10140000F1F700C000008091D30190E0982F882769
:101410002091D401822B4AE050E067E871E0880F08
:10142000892F881F990B91950E944C0B87E891E0BA
:101430000E94F2031FB8779BFECF82E08FB9779BA3
:10144000FECF80916200886080936200809162008C
:10145000877F809362008FE39FE10197F1F700C0DF
:1014600000008FEF8ABB8BBBEFE9FFE03197F1F70C
:1014700000C0000081E00E940902809174018F5F2A
:101480008093740180EF95EC9093870080938600A1
:101490006DCD81E090E0A9CD1092630110926201C0
:1014A00060E040E080E090E0C12CD12C16CE20918D
:1014B0006201309163012F5F3F4F309363012093AE
:1014C0006201109265011092640100E010E0E0E01A
:1014D000F0E0E6CD215031093093630120936201A1
:1014E0008BE390E0909365018093640105E010E048
:1014F000E9E0F0E0D5CD27E130E0309363012093BF
:10150000620162E043E082E090E053E0C52ED12C1E
:10151000E4CD82E090E069CD84E191E00E94F203A5
:101520001FB8779BFECF82E08FB9779BFECF80916B
:10153000620088608093620080916200877F809360
:101540006200EFE3FFE13197F1F700C0000038CF10
:10155000209162013091630180916D0190916E0143
:101560002817390709F0CCCE80918A0081608093DA
:101570008A00C6CE0E948F0210927401B0CE809174
:101580008A008E7F80938A0080EF9FEF9093870080
:101590008093860010926A0180916901813009F080
:1015A000F4CE80916401909165012CC080EF9FEF93
:1015B000909387008093860080918A008E7F80932D
:1015C0008A0080916401909165019C012F5F3F4FDB
:1015D0003093020120930101409369012C333105BE
:1015E000ACF020916B0130916C012F5F3F4F309335
:1015F0006C0120936B019C012B5331093093020144
:10160000209301012091010130910201821793077B
:1016100009F0BBCE209162013091630180916B0192
:1016200090916C012817390709F0AFCE80918A009C
:10163000816080938A0010926901A7CE97FB072EE4
:1016400016F4009407D077FD09D00E94380B07FCF0
:1016500005D03EF4909581959F4F089570956195C2
:101660007F4F0895EE0FFF1F0590F491E02D099430
:10167000AA1BBB1B51E107C0AA1FBB1FA617B707B8
:1016800010F0A61BB70B881F991F5A95A9F78095D4
:101690009095BC01CD010895FB019F01E894423073
:1016A000C4F04532B4F44A3029F497FB1EF4909507
:1016B00081959F4F642F77270E94380B805D8A3376
:1016C0000CF0895D8193CB010097A1F716F45DE2E0
:1016D00051931082C9010C946D0BDC01FC01672F42
:1016E00071917723E1F7329704C07C916D937083F9
:0E16F0006291AE17BF07C8F30895F894FFCFBC
:1016FE00FF010001000101416C61726D20697320D0
:10170E004F6E2000436C6F636B204D6F646520003D
:10171E00576861742074696D652069732069743F20
:10172E002000576861742074696D6520646F20799C
:10173E006F750077616E7420746F2077616B652012
:04174E0075703F0073
:00000001FF
